{
  "contractName": "Crud",
  "abi": [
    {
      "inputs": [
        {
          "internalType": "uint256",
          "name": "",
          "type": "uint256"
        }
      ],
      "name": "users",
      "outputs": [
        {
          "internalType": "uint256",
          "name": "id",
          "type": "uint256"
        },
        {
          "internalType": "string",
          "name": "name",
          "type": "string"
        }
      ],
      "stateMutability": "view",
      "type": "function",
      "constant": true
    },
    {
      "inputs": [
        {
          "internalType": "string",
          "name": "_name",
          "type": "string"
        }
      ],
      "name": "create",
      "outputs": [],
      "stateMutability": "nonpayable",
      "type": "function"
    },
    {
      "inputs": [
        {
          "internalType": "uint256",
          "name": "_id",
          "type": "uint256"
        }
      ],
      "name": "get",
      "outputs": [
        {
          "internalType": "uint256",
          "name": "",
          "type": "uint256"
        },
        {
          "internalType": "string",
          "name": "",
          "type": "string"
        }
      ],
      "stateMutability": "view",
      "type": "function",
      "constant": true
    },
    {
      "inputs": [
        {
          "internalType": "uint256",
          "name": "_id",
          "type": "uint256"
        },
        {
          "internalType": "string",
          "name": "_name",
          "type": "string"
        }
      ],
      "name": "update",
      "outputs": [],
      "stateMutability": "nonpayable",
      "type": "function"
    },
    {
      "inputs": [
        {
          "internalType": "uint256",
          "name": "_id",
          "type": "uint256"
        }
      ],
      "name": "delIndex",
      "outputs": [],
      "stateMutability": "nonpayable",
      "type": "function"
    }
  ],
  "bytecode": "0x6080604052600160005534801561001557600080fd5b50610a3a806100256000396000f3fe608060405234801561001057600080fd5b50600436106100575760003560e01c8063365b98b21461005c57806390d244d81461008d5780639507d39a146100a9578063b6a46b3b146100da578063f745630f146100f6575b600080fd5b610076600480360381019061007191906105b1565b610112565b604051610084929190610686565b60405180910390f35b6100a760048036038101906100a291906105b1565b6101ce565b005b6100c360048036038101906100be91906105b1565b61021c565b6040516100d1929190610686565b60405180910390f35b6100f460048036038101906100ef91906107eb565b61030e565b005b610110600480360381019061010b9190610834565b610399565b005b6001818154811061012257600080fd5b906000526020600020906002020160009150905080600001549080600101805461014b906108bf565b80601f0160208091040260200160405190810160405280929190818152602001828054610177906108bf565b80156101c45780601f10610199576101008083540402835291602001916101c4565b820191906000526020600020905b8154815290600101906020018083116101a757829003601f168201915b5050505050905082565b60006101d9826103e5565b9050600181815481106101ef576101ee6108f1565b5b90600052602060002090600202016000808201600090556001820160006102169190610484565b50505050565b60006060600061022b846103e5565b905060018181548110610241576102406108f1565b5b90600052602060002090600202016000015460018281548110610267576102666108f1565b5b9060005260206000209060020201600101808054610284906108bf565b80601f01602080910402602001604051908101604052809291908181526020018280546102b0906108bf565b80156102fd5780601f106102d2576101008083540402835291602001916102fd565b820191906000526020600020905b8154815290600101906020018083116102e057829003601f168201915b505050505090509250925050915091565b600060405180604001604052806000548152602001838152509050600181908060018154018082558091505060019003906000526020600020906002020160009091909190915060008201518160000155602082015181600101908051906020019061037b9291906104c4565b5050506000808154809291906103909061094f565b91905055505050565b60006103a4836103e5565b905081600182815481106103bb576103ba6108f1565b5b906000526020600020906002020160010190805190602001906103df9291906104c4565b50505050565b600080600090505b60018054905081101561044357826001828154811061040f5761040e6108f1565b5b9060005260206000209060020201600001541415610430578091505061047f565b808061043b9061094f565b9150506103ed565b506040517f08c379a0000000000000000000000000000000000000000000000000000000008152600401610476906109e4565b60405180910390fd5b919050565b508054610490906108bf565b6000825580601f106104a257506104c1565b601f0160209004906000526020600020908101906104c0919061054a565b5b50565b8280546104d0906108bf565b90600052602060002090601f0160209004810192826104f25760008555610539565b82601f1061050b57805160ff1916838001178555610539565b82800160010185558215610539579182015b8281111561053857825182559160200191906001019061051d565b5b509050610546919061054a565b5090565b5b8082111561056357600081600090555060010161054b565b5090565b6000604051905090565b600080fd5b600080fd5b6000819050919050565b61058e8161057b565b811461059957600080fd5b50565b6000813590506105ab81610585565b92915050565b6000602082840312156105c7576105c6610571565b5b60006105d58482850161059c565b91505092915050565b6105e78161057b565b82525050565b600081519050919050565b600082825260208201905092915050565b60005b8381101561062757808201518184015260208101905061060c565b83811115610636576000848401525b50505050565b6000601f19601f8301169050919050565b6000610658826105ed565b61066281856105f8565b9350610672818560208601610609565b61067b8161063c565b840191505092915050565b600060408201905061069b60008301856105de565b81810360208301526106ad818461064d565b90509392505050565b600080fd5b600080fd5b7f4e487b7100000000000000000000000000000000000000000000000000000000600052604160045260246000fd5b6106f88261063c565b810181811067ffffffffffffffff82111715610717576107166106c0565b5b80604052505050565b600061072a610567565b905061073682826106ef565b919050565b600067ffffffffffffffff821115610756576107556106c0565b5b61075f8261063c565b9050602081019050919050565b82818337600083830152505050565b600061078e6107898461073b565b610720565b9050828152602081018484840111156107aa576107a96106bb565b5b6107b584828561076c565b509392505050565b600082601f8301126107d2576107d16106b6565b5b81356107e284826020860161077b565b91505092915050565b60006020828403121561080157610800610571565b5b600082013567ffffffffffffffff81111561081f5761081e610576565b5b61082b848285016107bd565b91505092915050565b6000806040838503121561084b5761084a610571565b5b60006108598582860161059c565b925050602083013567ffffffffffffffff81111561087a57610879610576565b5b610886858286016107bd565b9150509250929050565b7f4e487b7100000000000000000000000000000000000000000000000000000000600052602260045260246000fd5b600060028204905060018216806108d757607f821691505b602082108114156108eb576108ea610890565b5b50919050565b7f4e487b7100000000000000000000000000000000000000000000000000000000600052603260045260246000fd5b7f4e487b7100000000000000000000000000000000000000000000000000000000600052601160045260246000fd5b600061095a8261057b565b91507fffffffffffffffffffffffffffffffffffffffffffffffffffffffffffffffff82141561098d5761098c610920565b5b600182019050919050565b7f5573657220646f6573206e6f7420657869737400000000000000000000000000600082015250565b60006109ce6013836105f8565b91506109d982610998565b602082019050919050565b600060208201905081810360008301526109fd816109c1565b905091905056fea2646970667358221220ae08c0427dcf77d86c67883b76b8ca693c3eecd063692865e903993c419126c764736f6c634300080a0033",
  "immutableReferences": {},
  "source": "// SPDX-License-Identifier: MIT\npragma solidity ^0.8.0;\n\ncontract Crud {\n  \n  struct User {\n    uint id;\n    string name;\n  }\n\n  uint private nextId = 1;\n  User[] public users;\n\n  function create(string memory _name) external {\n    User memory instance = User(nextId, _name);\n    users.push(instance);\n    nextId++;\n  }\n\n  function get(uint _id) external view returns(uint,string memory){\n    uint i = find(_id);\n    return(users[i].id, users[i].name);    \n  }\n\n  function update(uint _id, string memory _name) external {\n    uint i = find(_id);\n    users[i].name = _name;    \n  }\n\n  function delIndex(uint _id) external {\n    uint i = find(_id);\n    delete users[i];\n  }\n\n  function find(uint _id) private view returns(uint){\n    for(uint j=0;j<users.length;j++){\n      if(users[j].id == _id){\n        return j;\n      }\n    }\n    revert('User does not exist');\n  }\n}\n",
  "sourcePath": "C:\\Sandip@IBM\\BlockChainDev\\CrudContract\\contracts\\Crud.sol",
  "compiler": {
    "name": "solc",
    "version": "0.8.10+commit.fc410830.Emscripten.clang"
  },
  "schemaVersion": "3.4.3",
  "updatedAt": "2022-03-12T17:29:16.834Z",
  "networkType": "ethereum",
  "devdoc": {
    "kind": "dev",
    "methods": {},
    "version": 1
  },
  "userdoc": {
    "kind": "user",
    "methods": {},
    "version": 1
  }
}